{
  "contractName": "AisthisiToken",
  "abi": [
    {
      "inputs": [],
      "stateMutability": "nonpayable",
      "type": "constructor"
    },
    {
      "anonymous": false,
      "inputs": [
        {
          "indexed": true,
          "internalType": "address",
          "name": "owner",
          "type": "address"
        },
        {
          "indexed": true,
          "internalType": "address",
          "name": "approved",
          "type": "address"
        },
        {
          "indexed": true,
          "internalType": "uint256",
          "name": "tokenId",
          "type": "uint256"
        }
      ],
      "name": "Approval",
      "type": "event"
    },
    {
      "anonymous": false,
      "inputs": [
        {
          "indexed": true,
          "internalType": "address",
          "name": "owner",
          "type": "address"
        },
        {
          "indexed": true,
          "internalType": "address",
          "name": "operator",
          "type": "address"
        },
        {
          "indexed": false,
          "internalType": "bool",
          "name": "approved",
          "type": "bool"
        }
      ],
      "name": "ApprovalForAll",
      "type": "event"
    },
    {
      "anonymous": false,
      "inputs": [
        {
          "indexed": false,
          "internalType": "address",
          "name": "account",
          "type": "address"
        }
      ],
      "name": "Paused",
      "type": "event"
    },
    {
      "anonymous": false,
      "inputs": [
        {
          "indexed": true,
          "internalType": "bytes32",
          "name": "role",
          "type": "bytes32"
        },
        {
          "indexed": true,
          "internalType": "bytes32",
          "name": "previousAdminRole",
          "type": "bytes32"
        },
        {
          "indexed": true,
          "internalType": "bytes32",
          "name": "newAdminRole",
          "type": "bytes32"
        }
      ],
      "name": "RoleAdminChanged",
      "type": "event"
    },
    {
      "anonymous": false,
      "inputs": [
        {
          "indexed": true,
          "internalType": "bytes32",
          "name": "role",
          "type": "bytes32"
        },
        {
          "indexed": true,
          "internalType": "address",
          "name": "account",
          "type": "address"
        },
        {
          "indexed": true,
          "internalType": "address",
          "name": "sender",
          "type": "address"
        }
      ],
      "name": "RoleGranted",
      "type": "event"
    },
    {
      "anonymous": false,
      "inputs": [
        {
          "indexed": true,
          "internalType": "bytes32",
          "name": "role",
          "type": "bytes32"
        },
        {
          "indexed": true,
          "internalType": "address",
          "name": "account",
          "type": "address"
        },
        {
          "indexed": true,
          "internalType": "address",
          "name": "sender",
          "type": "address"
        }
      ],
      "name": "RoleRevoked",
      "type": "event"
    },
    {
      "anonymous": false,
      "inputs": [
        {
          "indexed": false,
          "internalType": "uint256",
          "name": "tokenId",
          "type": "uint256"
        },
        {
          "indexed": false,
          "internalType": "address",
          "name": "unlockerAddress",
          "type": "address"
        }
      ],
      "name": "TokenUnlocked",
      "type": "event"
    },
    {
      "anonymous": false,
      "inputs": [
        {
          "indexed": true,
          "internalType": "address",
          "name": "from",
          "type": "address"
        },
        {
          "indexed": true,
          "internalType": "address",
          "name": "to",
          "type": "address"
        },
        {
          "indexed": true,
          "internalType": "uint256",
          "name": "tokenId",
          "type": "uint256"
        }
      ],
      "name": "Transfer",
      "type": "event"
    },
    {
      "anonymous": false,
      "inputs": [
        {
          "indexed": false,
          "internalType": "address",
          "name": "account",
          "type": "address"
        }
      ],
      "name": "Unpaused",
      "type": "event"
    },
    {
      "inputs": [],
      "name": "DEFAULT_ADMIN_ROLE",
      "outputs": [
        {
          "internalType": "bytes32",
          "name": "",
          "type": "bytes32"
        }
      ],
      "stateMutability": "view",
      "type": "function",
      "constant": true
    },
    {
      "inputs": [],
      "name": "MINTER_ROLE",
      "outputs": [
        {
          "internalType": "bytes32",
          "name": "",
          "type": "bytes32"
        }
      ],
      "stateMutability": "view",
      "type": "function",
      "constant": true
    },
    {
      "inputs": [],
      "name": "PAUSER_ROLE",
      "outputs": [
        {
          "internalType": "bytes32",
          "name": "",
          "type": "bytes32"
        }
      ],
      "stateMutability": "view",
      "type": "function",
      "constant": true
    },
    {
      "inputs": [
        {
          "internalType": "address",
          "name": "to",
          "type": "address"
        },
        {
          "internalType": "uint256",
          "name": "tokenId",
          "type": "uint256"
        }
      ],
      "name": "approve",
      "outputs": [],
      "stateMutability": "nonpayable",
      "type": "function"
    },
    {
      "inputs": [
        {
          "internalType": "address",
          "name": "owner",
          "type": "address"
        }
      ],
      "name": "balanceOf",
      "outputs": [
        {
          "internalType": "uint256",
          "name": "",
          "type": "uint256"
        }
      ],
      "stateMutability": "view",
      "type": "function",
      "constant": true
    },
    {
      "inputs": [
        {
          "internalType": "uint256",
          "name": "tokenId",
          "type": "uint256"
        }
      ],
      "name": "burn",
      "outputs": [],
      "stateMutability": "nonpayable",
      "type": "function"
    },
    {
      "inputs": [
        {
          "internalType": "uint256",
          "name": "tokenId",
          "type": "uint256"
        }
      ],
      "name": "getApproved",
      "outputs": [
        {
          "internalType": "address",
          "name": "",
          "type": "address"
        }
      ],
      "stateMutability": "view",
      "type": "function",
      "constant": true
    },
    {
      "inputs": [
        {
          "internalType": "bytes32",
          "name": "role",
          "type": "bytes32"
        }
      ],
      "name": "getRoleAdmin",
      "outputs": [
        {
          "internalType": "bytes32",
          "name": "",
          "type": "bytes32"
        }
      ],
      "stateMutability": "view",
      "type": "function",
      "constant": true
    },
    {
      "inputs": [
        {
          "internalType": "bytes32",
          "name": "role",
          "type": "bytes32"
        },
        {
          "internalType": "uint256",
          "name": "index",
          "type": "uint256"
        }
      ],
      "name": "getRoleMember",
      "outputs": [
        {
          "internalType": "address",
          "name": "",
          "type": "address"
        }
      ],
      "stateMutability": "view",
      "type": "function",
      "constant": true
    },
    {
      "inputs": [
        {
          "internalType": "bytes32",
          "name": "role",
          "type": "bytes32"
        }
      ],
      "name": "getRoleMemberCount",
      "outputs": [
        {
          "internalType": "uint256",
          "name": "",
          "type": "uint256"
        }
      ],
      "stateMutability": "view",
      "type": "function",
      "constant": true
    },
    {
      "inputs": [
        {
          "internalType": "bytes32",
          "name": "role",
          "type": "bytes32"
        },
        {
          "internalType": "address",
          "name": "account",
          "type": "address"
        }
      ],
      "name": "grantRole",
      "outputs": [],
      "stateMutability": "nonpayable",
      "type": "function"
    },
    {
      "inputs": [
        {
          "internalType": "bytes32",
          "name": "role",
          "type": "bytes32"
        },
        {
          "internalType": "address",
          "name": "account",
          "type": "address"
        }
      ],
      "name": "hasRole",
      "outputs": [
        {
          "internalType": "bool",
          "name": "",
          "type": "bool"
        }
      ],
      "stateMutability": "view",
      "type": "function",
      "constant": true
    },
    {
      "inputs": [
        {
          "internalType": "address",
          "name": "owner",
          "type": "address"
        },
        {
          "internalType": "address",
          "name": "operator",
          "type": "address"
        }
      ],
      "name": "isApprovedForAll",
      "outputs": [
        {
          "internalType": "bool",
          "name": "",
          "type": "bool"
        }
      ],
      "stateMutability": "view",
      "type": "function",
      "constant": true
    },
    {
      "inputs": [],
      "name": "name",
      "outputs": [
        {
          "internalType": "string",
          "name": "",
          "type": "string"
        }
      ],
      "stateMutability": "view",
      "type": "function",
      "constant": true
    },
    {
      "inputs": [
        {
          "internalType": "uint256",
          "name": "tokenId",
          "type": "uint256"
        }
      ],
      "name": "ownerOf",
      "outputs": [
        {
          "internalType": "address",
          "name": "",
          "type": "address"
        }
      ],
      "stateMutability": "view",
      "type": "function",
      "constant": true
    },
    {
      "inputs": [],
      "name": "pause",
      "outputs": [],
      "stateMutability": "nonpayable",
      "type": "function"
    },
    {
      "inputs": [],
      "name": "paused",
      "outputs": [
        {
          "internalType": "bool",
          "name": "",
          "type": "bool"
        }
      ],
      "stateMutability": "view",
      "type": "function",
      "constant": true
    },
    {
      "inputs": [
        {
          "internalType": "bytes32",
          "name": "role",
          "type": "bytes32"
        },
        {
          "internalType": "address",
          "name": "account",
          "type": "address"
        }
      ],
      "name": "renounceRole",
      "outputs": [],
      "stateMutability": "nonpayable",
      "type": "function"
    },
    {
      "inputs": [
        {
          "internalType": "bytes32",
          "name": "role",
          "type": "bytes32"
        },
        {
          "internalType": "address",
          "name": "account",
          "type": "address"
        }
      ],
      "name": "revokeRole",
      "outputs": [],
      "stateMutability": "nonpayable",
      "type": "function"
    },
    {
      "inputs": [
        {
          "internalType": "address",
          "name": "from",
          "type": "address"
        },
        {
          "internalType": "address",
          "name": "to",
          "type": "address"
        },
        {
          "internalType": "uint256",
          "name": "tokenId",
          "type": "uint256"
        }
      ],
      "name": "safeTransferFrom",
      "outputs": [],
      "stateMutability": "nonpayable",
      "type": "function"
    },
    {
      "inputs": [
        {
          "internalType": "address",
          "name": "from",
          "type": "address"
        },
        {
          "internalType": "address",
          "name": "to",
          "type": "address"
        },
        {
          "internalType": "uint256",
          "name": "tokenId",
          "type": "uint256"
        },
        {
          "internalType": "bytes",
          "name": "_data",
          "type": "bytes"
        }
      ],
      "name": "safeTransferFrom",
      "outputs": [],
      "stateMutability": "nonpayable",
      "type": "function"
    },
    {
      "inputs": [
        {
          "internalType": "address",
          "name": "operator",
          "type": "address"
        },
        {
          "internalType": "bool",
          "name": "approved",
          "type": "bool"
        }
      ],
      "name": "setApprovalForAll",
      "outputs": [],
      "stateMutability": "nonpayable",
      "type": "function"
    },
    {
      "inputs": [
        {
          "internalType": "bytes4",
          "name": "interfaceId",
          "type": "bytes4"
        }
      ],
      "name": "supportsInterface",
      "outputs": [
        {
          "internalType": "bool",
          "name": "",
          "type": "bool"
        }
      ],
      "stateMutability": "view",
      "type": "function",
      "constant": true
    },
    {
      "inputs": [],
      "name": "symbol",
      "outputs": [
        {
          "internalType": "string",
          "name": "",
          "type": "string"
        }
      ],
      "stateMutability": "view",
      "type": "function",
      "constant": true
    },
    {
      "inputs": [
        {
          "internalType": "uint256",
          "name": "index",
          "type": "uint256"
        }
      ],
      "name": "tokenByIndex",
      "outputs": [
        {
          "internalType": "uint256",
          "name": "",
          "type": "uint256"
        }
      ],
      "stateMutability": "view",
      "type": "function",
      "constant": true
    },
    {
      "inputs": [
        {
          "internalType": "uint256",
          "name": "",
          "type": "uint256"
        }
      ],
      "name": "tokenLockedFromTimeStamp",
      "outputs": [
        {
          "internalType": "uint256",
          "name": "",
          "type": "uint256"
        }
      ],
      "stateMutability": "view",
      "type": "function",
      "constant": true
    },
    {
      "inputs": [
        {
          "internalType": "address",
          "name": "owner",
          "type": "address"
        },
        {
          "internalType": "uint256",
          "name": "index",
          "type": "uint256"
        }
      ],
      "name": "tokenOfOwnerByIndex",
      "outputs": [
        {
          "internalType": "uint256",
          "name": "",
          "type": "uint256"
        }
      ],
      "stateMutability": "view",
      "type": "function",
      "constant": true
    },
    {
      "inputs": [
        {
          "internalType": "uint256",
          "name": "",
          "type": "uint256"
        }
      ],
      "name": "tokenUnlocked",
      "outputs": [
        {
          "internalType": "bool",
          "name": "",
          "type": "bool"
        }
      ],
      "stateMutability": "view",
      "type": "function",
      "constant": true
    },
    {
      "inputs": [
        {
          "internalType": "uint256",
          "name": "",
          "type": "uint256"
        }
      ],
      "name": "tokenUnlockedHashs",
      "outputs": [
        {
          "internalType": "bytes32",
          "name": "",
          "type": "bytes32"
        }
      ],
      "stateMutability": "view",
      "type": "function",
      "constant": true
    },
    {
      "inputs": [],
      "name": "totalSupply",
      "outputs": [
        {
          "internalType": "uint256",
          "name": "",
          "type": "uint256"
        }
      ],
      "stateMutability": "view",
      "type": "function",
      "constant": true
    },
    {
      "inputs": [
        {
          "internalType": "address",
          "name": "from",
          "type": "address"
        },
        {
          "internalType": "address",
          "name": "to",
          "type": "address"
        },
        {
          "internalType": "uint256",
          "name": "tokenId",
          "type": "uint256"
        }
      ],
      "name": "transferFrom",
      "outputs": [],
      "stateMutability": "nonpayable",
      "type": "function"
    },
    {
      "inputs": [],
      "name": "unpause",
      "outputs": [],
      "stateMutability": "nonpayable",
      "type": "function"
    },
    {
      "inputs": [
        {
          "internalType": "bytes32",
          "name": "unlockHash",
          "type": "bytes32"
        },
        {
          "internalType": "uint256",
          "name": "tokenId",
          "type": "uint256"
        }
      ],
      "name": "unlockToken",
      "outputs": [],
      "stateMutability": "nonpayable",
      "type": "function"
    },
    {
      "inputs": [
        {
          "internalType": "address",
          "name": "to",
          "type": "address"
        },
        {
          "internalType": "uint256",
          "name": "lockedFromTimestamp",
          "type": "uint256"
        },
        {
          "internalType": "bytes32",
          "name": "unlockHash",
          "type": "bytes32"
        }
      ],
      "name": "mint",
      "outputs": [],
      "stateMutability": "nonpayable",
      "type": "function"
    },
    {
      "inputs": [
        {
          "internalType": "address",
          "name": "to",
          "type": "address"
        }
      ],
      "name": "mint",
      "outputs": [],
      "stateMutability": "nonpayable",
      "type": "function"
    },
    {
      "inputs": [
        {
          "internalType": "uint256",
          "name": "tokenId",
          "type": "uint256"
        }
      ],
      "name": "tokenURI",
      "outputs": [
        {
          "internalType": "string",
          "name": "",
          "type": "string"
        }
      ],
      "stateMutability": "view",
      "type": "function",
      "constant": true
    }
  ],
  "bytecode": "0x60806040523480156200001157600080fd5b506040518060400160405280600d81526020017f4169737468697369546f6b656e000000000000000000000000000000000000008152506040518060400160405280600381526020017f41495300000000000000000000000000000000000000000000000000000000008152506040518060400160405280601e81526020017f68747470733a2f2f61697374686973692e6172742f6d657461646174612f000081525082828160029080519060200190620000ce92919062000463565b508060039080519060200190620000e792919062000463565b5050506000600c60006101000a81548160ff02191690831515021790555080600e90805190602001906200011d92919062000463565b50620001426000801b62000136620001cd60201b60201c565b620001d560201b60201c565b620001837f9f2df0fed2c77648de5860a4cc508cd0818c85b8b8a1ab4ceeef8d981c8956a662000177620001cd60201b60201c565b620001d560201b60201c565b620001c47f65d7a28e3265b37a6474929f336521b332c1681b933f6cb9f3376673440d862a620001b8620001cd60201b60201c565b620001d560201b60201c565b50505062000578565b600033905090565b620001ec82826200021d60201b620015971760201c565b6200021881600160008581526020019081526020016000206200023360201b620015a51790919060201c565b505050565b6200022f82826200026b60201b60201c565b5050565b600062000263836000018373ffffffffffffffffffffffffffffffffffffffff1660001b6200035c60201b60201c565b905092915050565b6200027d8282620003d660201b60201c565b6200035857600160008084815260200190815260200160002060000160008373ffffffffffffffffffffffffffffffffffffffff1673ffffffffffffffffffffffffffffffffffffffff16815260200190815260200160002060006101000a81548160ff021916908315150217905550620002fd620001cd60201b60201c565b73ffffffffffffffffffffffffffffffffffffffff168173ffffffffffffffffffffffffffffffffffffffff16837f2f8788117e7eff1d82e926ec794901d17c78024a50270940304540a733656f0d60405160405180910390a45b5050565b60006200037083836200044060201b60201c565b620003cb578260000182908060018154018082558091505060019003906000526020600020016000909190919091505582600001805490508360010160008481526020019081526020016000208190555060019050620003d0565b600090505b92915050565b600080600084815260200190815260200160002060000160008373ffffffffffffffffffffffffffffffffffffffff1673ffffffffffffffffffffffffffffffffffffffff16815260200190815260200160002060009054906101000a900460ff16905092915050565b600080836001016000848152602001908152602001600020541415905092915050565b828054620004719062000513565b90600052602060002090601f016020900481019282620004955760008555620004e1565b82601f10620004b057805160ff1916838001178555620004e1565b82800160010185558215620004e1579182015b82811115620004e0578251825591602001919060010190620004c3565b5b509050620004f09190620004f4565b5090565b5b808211156200050f576000816000905550600101620004f5565b5090565b600060028204905060018216806200052c57607f821691505b6020821081141562000543576200054262000549565b5b50919050565b7f4e487b7100000000000000000000000000000000000000000000000000000000600052602260045260246000fd5b614ff480620005886000396000f3fe608060405234801561001057600080fd5b506004361061021c5760003560e01c80636a62784211610125578063b88d4fde116100ad578063d53913931161007c578063d53913931461066f578063d547741f1461068d578063e63ab1e9146106a9578063e985e9c5146106c7578063f402670c146106f75761021c565b8063b88d4fde146105c3578063c4d271be146105df578063c87b56dd1461060f578063ca15c8731461063f5761021c565b806391d14854116100f457806391d148541461051f57806395d89b411461054f578063a217fddf1461056d578063a22cb4651461058b578063a3c3e1bd146105a75761021c565b80636a6278421461049957806370a08231146104b55780638456cb59146104e55780639010d07c146104ef5761021c565b80632f745c59116101a857806342966c681161017757806342966c68146103cf5780634f6ccce7146103eb5780635c975abb1461041b57806360e54804146104395780636352211e146104695761021c565b80632f745c591461035d57806336568abe1461038d5780633f4ba83a146103a957806342842e0e146103b35761021c565b806318160ddd116101ef57806318160ddd146102bb5780631e458bee146102d957806323b872dd146102f5578063248a9ca3146103115780632f2ff15d146103415761021c565b806301ffc9a71461022157806306fdde0314610251578063081812fc1461026f578063095ea7b31461029f575b600080fd5b61023b60048036038101906102369190613834565b610727565b6040516102489190613eb2565b60405180910390f35b610259610739565b6040516102669190613ee8565b60405180910390f35b61028960048036038101906102849190613886565b6107cb565b6040516102969190613e4b565b60405180910390f35b6102b960048036038101906102b49190613708565b610850565b005b6102c3610968565b6040516102d0919061428a565b60405180910390f35b6102f360048036038101906102ee9190613744565b610975565b005b61030f600480360381019061030a9190613602565b6109cf565b005b61032b60048036038101906103269190613793565b610a2f565b6040516103389190613ecd565b60405180910390f35b61035b600480360381019061035691906137bc565b610a4e565b005b61037760048036038101906103729190613708565b610a82565b604051610384919061428a565b60405180910390f35b6103a760048036038101906103a291906137bc565b610b27565b005b6103b1610b5b565b005b6103cd60048036038101906103c89190613602565b610bd5565b005b6103e960048036038101906103e49190613886565b610bf5565b005b61040560048036038101906104009190613886565b610c51565b604051610412919061428a565b60405180910390f35b610423610ce8565b6040516104309190613eb2565b60405180910390f35b610453600480360381019061044e9190613886565b610cff565b6040516104609190613ecd565b60405180910390f35b610483600480360381019061047e9190613886565b610d17565b6040516104909190613e4b565b60405180910390f35b6104b360048036038101906104ae919061359d565b610dc9565b005b6104cf60048036038101906104ca919061359d565b610e59565b6040516104dc919061428a565b60405180910390f35b6104ed610f11565b005b610509600480360381019061050491906137f8565b610f8b565b6040516105169190613e4b565b60405180910390f35b610539600480360381019061053491906137bc565b610fba565b6040516105469190613eb2565b60405180910390f35b610557611024565b6040516105649190613ee8565b60405180910390f35b6105756110b6565b6040516105829190613ecd565b60405180910390f35b6105a560048036038101906105a091906136cc565b6110bd565b005b6105c160048036038101906105bc91906137f8565b61123e565b005b6105dd60048036038101906105d89190613651565b611398565b005b6105f960048036038101906105f49190613886565b6113fa565b6040516106069190613eb2565b60405180910390f35b61062960048036038101906106249190613886565b61141a565b6040516106369190613ee8565b60405180910390f35b61065960048036038101906106549190613793565b61144b565b604051610666919061428a565b60405180910390f35b61067761146f565b6040516106849190613ecd565b60405180910390f35b6106a760048036038101906106a291906137bc565b611493565b005b6106b16114c7565b6040516106be9190613ecd565b60405180910390f35b6106e160048036038101906106dc91906135c6565b6114eb565b6040516106ee9190613eb2565b60405180910390f35b610711600480360381019061070c9190613886565b61157f565b60405161071e919061428a565b60405180910390f35b6000610732826115d5565b9050919050565b60606002805461074890614566565b80601f016020809104026020016040519081016040528092919081815260200182805461077490614566565b80156107c15780601f10610796576101008083540402835291602001916107c1565b820191906000526020600020905b8154815290600101906020018083116107a457829003601f168201915b5050505050905090565b60006107d68261164f565b610815576040517f08c379a000000000000000000000000000000000000000000000000000000000815260040161080c9061410a565b60405180910390fd5b6006600083815260200190815260200160002060009054906101000a900473ffffffffffffffffffffffffffffffffffffffff169050919050565b600061085b82610d17565b90508073ffffffffffffffffffffffffffffffffffffffff168373ffffffffffffffffffffffffffffffffffffffff1614156108cc576040517f08c379a00000000000000000000000000000000000000000000000000000000081526004016108c39061418a565b60405180910390fd5b8073ffffffffffffffffffffffffffffffffffffffff166108eb6116bb565b73ffffffffffffffffffffffffffffffffffffffff16148061091a5750610919816109146116bb565b6114eb565b5b610959576040517f08c379a00000000000000000000000000000000000000000000000000000000081526004016109509061406a565b60405180910390fd5b61096383836116c3565b505050565b6000600a80549050905090565b8160106000610984600f61177c565b81526020019081526020016000208190555080601160006109a5600f61177c565b8152602001908152602001600020819055506109c1600f61178a565b6109ca83610dc9565b505050565b6109e06109da6116bb565b826117a0565b610a1f576040517f08c379a0000000000000000000000000000000000000000000000000000000008152600401610a16906141aa565b60405180910390fd5b610a2a83838361187e565b505050565b6000806000838152602001908152602001600020600101549050919050565b610a588282611ada565b610a7d81600160008581526020019081526020016000206115a590919063ffffffff16565b505050565b6000610a8d83610e59565b8210610ace576040517f08c379a0000000000000000000000000000000000000000000000000000000008152600401610ac590613f6a565b60405180910390fd5b600860008473ffffffffffffffffffffffffffffffffffffffff1673ffffffffffffffffffffffffffffffffffffffff168152602001908152602001600020600083815260200190815260200160002054905092915050565b610b318282611b03565b610b568160016000858152602001908152602001600020611b8690919063ffffffff16565b505050565b610b8c7f65d7a28e3265b37a6474929f336521b332c1681b933f6cb9f3376673440d862a610b876116bb565b610fba565b610bcb576040517f08c379a0000000000000000000000000000000000000000000000000000000008152600401610bc29061424a565b60405180910390fd5b610bd3611bb6565b565b610bf083838360405180602001604052806000815250611398565b505050565b610c06610c006116bb565b826117a0565b610c45576040517f08c379a0000000000000000000000000000000000000000000000000000000008152600401610c3c9061422a565b60405180910390fd5b610c4e81611c58565b50565b6000610c5b610968565b8210610c9c576040517f08c379a0000000000000000000000000000000000000000000000000000000008152600401610c93906141ea565b60405180910390fd5b600a8281548110610cd6577f4e487b7100000000000000000000000000000000000000000000000000000000600052603260045260246000fd5b90600052602060002001549050919050565b6000600c60009054906101000a900460ff16905090565b60116020528060005260406000206000915090505481565b6000806004600084815260200190815260200160002060009054906101000a900473ffffffffffffffffffffffffffffffffffffffff169050600073ffffffffffffffffffffffffffffffffffffffff168173ffffffffffffffffffffffffffffffffffffffff161415610dc0576040517f08c379a0000000000000000000000000000000000000000000000000000000008152600401610db7906140aa565b60405180910390fd5b80915050919050565b610dfa7f9f2df0fed2c77648de5860a4cc508cd0818c85b8b8a1ab4ceeef8d981c8956a6610df56116bb565b610fba565b610e39576040517f08c379a0000000000000000000000000000000000000000000000000000000008152600401610e309061420a565b60405180910390fd5b610e4c81610e47600d61177c565b611d69565b610e56600d61178a565b50565b60008073ffffffffffffffffffffffffffffffffffffffff168273ffffffffffffffffffffffffffffffffffffffff161415610eca576040517f08c379a0000000000000000000000000000000000000000000000000000000008152600401610ec19061408a565b60405180910390fd5b600560008373ffffffffffffffffffffffffffffffffffffffff1673ffffffffffffffffffffffffffffffffffffffff168152602001908152602001600020549050919050565b610f427f65d7a28e3265b37a6474929f336521b332c1681b933f6cb9f3376673440d862a610f3d6116bb565b610fba565b610f81576040517f08c379a0000000000000000000000000000000000000000000000000000000008152600401610f7890613fca565b60405180910390fd5b610f89611f37565b565b6000610fb28260016000868152602001908152602001600020611fda90919063ffffffff16565b905092915050565b600080600084815260200190815260200160002060000160008373ffffffffffffffffffffffffffffffffffffffff1673ffffffffffffffffffffffffffffffffffffffff16815260200190815260200160002060009054906101000a900460ff16905092915050565b60606003805461103390614566565b80601f016020809104026020016040519081016040528092919081815260200182805461105f90614566565b80156110ac5780601f10611081576101008083540402835291602001916110ac565b820191906000526020600020905b81548152906001019060200180831161108f57829003601f168201915b5050505050905090565b6000801b81565b6110c56116bb565b73ffffffffffffffffffffffffffffffffffffffff168273ffffffffffffffffffffffffffffffffffffffff161415611133576040517f08c379a000000000000000000000000000000000000000000000000000000000815260040161112a9061400a565b60405180910390fd5b80600760006111406116bb565b73ffffffffffffffffffffffffffffffffffffffff1673ffffffffffffffffffffffffffffffffffffffff16815260200190815260200160002060008473ffffffffffffffffffffffffffffffffffffffff1673ffffffffffffffffffffffffffffffffffffffff16815260200190815260200160002060006101000a81548160ff0219169083151502179055508173ffffffffffffffffffffffffffffffffffffffff166111ed6116bb565b73ffffffffffffffffffffffffffffffffffffffff167f17307eab39ab6107e8899845ad3d59bd9653f200f220920489ca2b5937696c31836040516112329190613eb2565b60405180910390a35050565b61124781610d17565b73ffffffffffffffffffffffffffffffffffffffff163373ffffffffffffffffffffffffffffffffffffffff16146112b4576040517f08c379a00000000000000000000000000000000000000000000000000000000081526004016112ab9061416a565b60405180910390fd5b6011600082815260200190815260200160002054826040516020016112d99190613ecd565b604051602081830303815290604052805190602001201461132f576040517f08c379a0000000000000000000000000000000000000000000000000000000008152600401611326906141ca565b60405180910390fd5b60016012600083815260200190815260200160002060006101000a81548160ff0219169083151502179055507f0fe7d9801197f79ef3b1595d19379eb58f0fff5f98b0f6d6f34c03cae5306c37813360405161138c9291906142a5565b60405180910390a15050565b6113a96113a36116bb565b836117a0565b6113e8576040517f08c379a00000000000000000000000000000000000000000000000000000000081526004016113df906141aa565b60405180910390fd5b6113f484848484611ff4565b50505050565b60126020528060005260406000206000915054906101000a900460ff1681565b606061142582612050565b6040516020016114359190613def565b6040516020818303038152906040529050919050565b6000611468600160008481526020019081526020016000206120f7565b9050919050565b7f9f2df0fed2c77648de5860a4cc508cd0818c85b8b8a1ab4ceeef8d981c8956a681565b61149d828261210c565b6114c28160016000858152602001908152602001600020611b8690919063ffffffff16565b505050565b7f65d7a28e3265b37a6474929f336521b332c1681b933f6cb9f3376673440d862a81565b6000600760008473ffffffffffffffffffffffffffffffffffffffff1673ffffffffffffffffffffffffffffffffffffffff16815260200190815260200160002060008373ffffffffffffffffffffffffffffffffffffffff1673ffffffffffffffffffffffffffffffffffffffff16815260200190815260200160002060009054906101000a900460ff16905092915050565b60106020528060005260406000206000915090505481565b6115a18282612135565b5050565b60006115cd836000018373ffffffffffffffffffffffffffffffffffffffff1660001b612215565b905092915050565b60007f780e9d63000000000000000000000000000000000000000000000000000000007bffffffffffffffffffffffffffffffffffffffffffffffffffffffff1916827bffffffffffffffffffffffffffffffffffffffffffffffffffffffff19161480611648575061164782612285565b5b9050919050565b60008073ffffffffffffffffffffffffffffffffffffffff166004600084815260200190815260200160002060009054906101000a900473ffffffffffffffffffffffffffffffffffffffff1673ffffffffffffffffffffffffffffffffffffffff1614159050919050565b600033905090565b816006600083815260200190815260200160002060006101000a81548173ffffffffffffffffffffffffffffffffffffffff021916908373ffffffffffffffffffffffffffffffffffffffff160217905550808273ffffffffffffffffffffffffffffffffffffffff1661173683610d17565b73ffffffffffffffffffffffffffffffffffffffff167f8c5be1e5ebec7d5bd14f71427d1e84f3dd0314c0f7b2291e5b200ac8c7c3b92560405160405180910390a45050565b600081600001549050919050565b6001816000016000828254019250508190555050565b60006117ab8261164f565b6117ea576040517f08c379a00000000000000000000000000000000000000000000000000000000081526004016117e19061402a565b60405180910390fd5b60006117f583610d17565b90508073ffffffffffffffffffffffffffffffffffffffff168473ffffffffffffffffffffffffffffffffffffffff16148061186457508373ffffffffffffffffffffffffffffffffffffffff1661184c846107cb565b73ffffffffffffffffffffffffffffffffffffffff16145b80611875575061187481856114eb565b5b91505092915050565b8273ffffffffffffffffffffffffffffffffffffffff1661189e82610d17565b73ffffffffffffffffffffffffffffffffffffffff16146118f4576040517f08c379a00000000000000000000000000000000000000000000000000000000081526004016118eb9061412a565b60405180910390fd5b600073ffffffffffffffffffffffffffffffffffffffff168273ffffffffffffffffffffffffffffffffffffffff161415611964576040517f08c379a000000000000000000000000000000000000000000000000000000000815260040161195b90613fea565b60405180910390fd5b61196f838383612367565b61197a6000826116c3565b6001600560008573ffffffffffffffffffffffffffffffffffffffff1673ffffffffffffffffffffffffffffffffffffffff16815260200190815260200160002060008282546119ca9190614448565b925050819055506001600560008473ffffffffffffffffffffffffffffffffffffffff1673ffffffffffffffffffffffffffffffffffffffff1681526020019081526020016000206000828254611a219190614367565b92505081905550816004600083815260200190815260200160002060006101000a81548173ffffffffffffffffffffffffffffffffffffffff021916908373ffffffffffffffffffffffffffffffffffffffff160217905550808273ffffffffffffffffffffffffffffffffffffffff168473ffffffffffffffffffffffffffffffffffffffff167fddf252ad1be2c89b69c2b068fc378daa952ba7f163c4a11628f55a4df523b3ef60405160405180910390a4505050565b611ae382610a2f565b611af481611aef6116bb565b6123f4565b611afe8383612135565b505050565b611b0b6116bb565b73ffffffffffffffffffffffffffffffffffffffff168173ffffffffffffffffffffffffffffffffffffffff1614611b78576040517f08c379a0000000000000000000000000000000000000000000000000000000008152600401611b6f9061426a565b60405180910390fd5b611b828282612491565b5050565b6000611bae836000018373ffffffffffffffffffffffffffffffffffffffff1660001b612572565b905092915050565b611bbe610ce8565b611bfd576040517f08c379a0000000000000000000000000000000000000000000000000000000008152600401611bf490613f4a565b60405180910390fd5b6000600c60006101000a81548160ff0219169083151502179055507f5db9ee0a495bf2e6ff9c91a7834c1ba4fdd244a5e8aa4e537bd38aeae4b073aa611c416116bb565b604051611c4e9190613e4b565b60405180910390a1565b6000611c6382610d17565b9050611c7181600084612367565b611c7c6000836116c3565b6001600560008373ffffffffffffffffffffffffffffffffffffffff1673ffffffffffffffffffffffffffffffffffffffff1681526020019081526020016000206000828254611ccc9190614448565b925050819055506004600083815260200190815260200160002060006101000a81549073ffffffffffffffffffffffffffffffffffffffff021916905581600073ffffffffffffffffffffffffffffffffffffffff168273ffffffffffffffffffffffffffffffffffffffff167fddf252ad1be2c89b69c2b068fc378daa952ba7f163c4a11628f55a4df523b3ef60405160405180910390a45050565b600073ffffffffffffffffffffffffffffffffffffffff168273ffffffffffffffffffffffffffffffffffffffff161415611dd9576040517f08c379a0000000000000000000000000000000000000000000000000000000008152600401611dd0906140ca565b60405180910390fd5b611de28161164f565b15611e22576040517f08c379a0000000000000000000000000000000000000000000000000000000008152600401611e1990613faa565b60405180910390fd5b611e2e60008383612367565b6001600560008473ffffffffffffffffffffffffffffffffffffffff1673ffffffffffffffffffffffffffffffffffffffff1681526020019081526020016000206000828254611e7e9190614367565b92505081905550816004600083815260200190815260200160002060006101000a81548173ffffffffffffffffffffffffffffffffffffffff021916908373ffffffffffffffffffffffffffffffffffffffff160217905550808273ffffffffffffffffffffffffffffffffffffffff16600073ffffffffffffffffffffffffffffffffffffffff167fddf252ad1be2c89b69c2b068fc378daa952ba7f163c4a11628f55a4df523b3ef60405160405180910390a45050565b611f3f610ce8565b15611f7f576040517f08c379a0000000000000000000000000000000000000000000000000000000008152600401611f769061404a565b60405180910390fd5b6001600c60006101000a81548160ff0219169083151502179055507f62e78cea01bee320cd4e420270b5ea74000d11b0c9f74754ebdbfc544b05a258611fc36116bb565b604051611fd09190613e4b565b60405180910390a1565b6000611fe983600001836126f8565b60001c905092915050565b611fff84848461187e565b61200b84848484612749565b61204a576040517f08c379a000000000000000000000000000000000000000000000000000000000815260040161204190613f8a565b60405180910390fd5b50505050565b606061205b8261164f565b61209a576040517f08c379a00000000000000000000000000000000000000000000000000000000081526004016120919061414a565b60405180910390fd5b60006120a46128e0565b905060008151116120c457604051806020016040528060008152506120ef565b806120ce84612972565b6040516020016120df929190613dcb565b6040516020818303038152906040525b915050919050565b600061210582600001612b1f565b9050919050565b61211582610a2f565b612126816121216116bb565b6123f4565b6121308383612491565b505050565b61213f8282610fba565b61221157600160008084815260200190815260200160002060000160008373ffffffffffffffffffffffffffffffffffffffff1673ffffffffffffffffffffffffffffffffffffffff16815260200190815260200160002060006101000a81548160ff0219169083151502179055506121b66116bb565b73ffffffffffffffffffffffffffffffffffffffff168173ffffffffffffffffffffffffffffffffffffffff16837f2f8788117e7eff1d82e926ec794901d17c78024a50270940304540a733656f0d60405160405180910390a45b5050565b60006122218383612b30565b61227a57826000018290806001815401808255809150506001900390600052602060002001600090919091909150558260000180549050836001016000848152602001908152602001600020819055506001905061227f565b600090505b92915050565b60007f80ac58cd000000000000000000000000000000000000000000000000000000007bffffffffffffffffffffffffffffffffffffffffffffffffffffffff1916827bffffffffffffffffffffffffffffffffffffffffffffffffffffffff1916148061235057507f5b5e139f000000000000000000000000000000000000000000000000000000007bffffffffffffffffffffffffffffffffffffffffffffffffffffffff1916827bffffffffffffffffffffffffffffffffffffffffffffffffffffffff1916145b80612360575061235f82612b53565b5b9050919050565b42601060008381526020019081526020016000205411806123a557506012600082815260200190815260200160002060009054906101000a900460ff165b6123e4576040517f08c379a00000000000000000000000000000000000000000000000000000000081526004016123db906140ea565b60405180910390fd5b6123ef838383612bcd565b505050565b6123fe8282610fba565b61248d576124238173ffffffffffffffffffffffffffffffffffffffff166014612bdd565b6124318360001c6020612bdd565b604051602001612442929190613e11565b6040516020818303038152906040526040517f08c379a00000000000000000000000000000000000000000000000000000000081526004016124849190613ee8565b60405180910390fd5b5050565b61249b8282610fba565b1561256e57600080600084815260200190815260200160002060000160008373ffffffffffffffffffffffffffffffffffffffff1673ffffffffffffffffffffffffffffffffffffffff16815260200190815260200160002060006101000a81548160ff0219169083151502179055506125136116bb565b73ffffffffffffffffffffffffffffffffffffffff168173ffffffffffffffffffffffffffffffffffffffff16837ff6391f5c32d9c69d2a47ea670b442974b53935d1edc7fd64eb21e047a839171b60405160405180910390a45b5050565b600080836001016000848152602001908152602001600020549050600081146126ec5760006001826125a49190614448565b90506000600186600001805490506125bc9190614448565b9050818114612677576000866000018281548110612603577f4e487b7100000000000000000000000000000000000000000000000000000000600052603260045260246000fd5b906000526020600020015490508087600001848154811061264d577f4e487b7100000000000000000000000000000000000000000000000000000000600052603260045260246000fd5b90600052602060002001819055508387600101600083815260200190815260200160002081905550505b856000018054806126b1577f4e487b7100000000000000000000000000000000000000000000000000000000600052603160045260246000fd5b6001900381819060005260206000200160009055905585600101600086815260200190815260200160002060009055600193505050506126f2565b60009150505b92915050565b6000826000018281548110612736577f4e487b7100000000000000000000000000000000000000000000000000000000600052603260045260246000fd5b9060005260206000200154905092915050565b600061276a8473ffffffffffffffffffffffffffffffffffffffff16612ed7565b156128d3578373ffffffffffffffffffffffffffffffffffffffff1663150b7a026127936116bb565b8786866040518563ffffffff1660e01b81526004016127b59493929190613e66565b602060405180830381600087803b1580156127cf57600080fd5b505af192505050801561280057506040513d601f19601f820116820180604052508101906127fd919061385d565b60015b612883573d8060008114612830576040519150601f19603f3d011682016040523d82523d6000602084013e612835565b606091505b5060008151141561287b576040517f08c379a000000000000000000000000000000000000000000000000000000000815260040161287290613f8a565b60405180910390fd5b805181602001fd5b63150b7a0260e01b7bffffffffffffffffffffffffffffffffffffffffffffffffffffffff1916817bffffffffffffffffffffffffffffffffffffffffffffffffffffffff1916149150506128d8565b600190505b949350505050565b6060600e80546128ef90614566565b80601f016020809104026020016040519081016040528092919081815260200182805461291b90614566565b80156129685780601f1061293d57610100808354040283529160200191612968565b820191906000526020600020905b81548152906001019060200180831161294b57829003601f168201915b5050505050905090565b606060008214156129ba576040518060400160405280600181526020017f30000000000000000000000000000000000000000000000000000000000000008152509050612b1a565b600082905060005b600082146129ec5780806129d5906145c9565b915050600a826129e591906143bd565b91506129c2565b60008167ffffffffffffffff811115612a2e577f4e487b7100000000000000000000000000000000000000000000000000000000600052604160045260246000fd5b6040519080825280601f01601f191660200182016040528015612a605781602001600182028036833780820191505090505b5090505b60008514612b1357600182612a799190614448565b9150600a85612a889190614612565b6030612a949190614367565b60f81b818381518110612ad0577f4e487b7100000000000000000000000000000000000000000000000000000000600052603260045260246000fd5b60200101907effffffffffffffffffffffffffffffffffffffffffffffffffffffffffffff1916908160001a905350600a85612b0c91906143bd565b9450612a64565b8093505050505b919050565b600081600001805490509050919050565b600080836001016000848152602001908152602001600020541415905092915050565b60007f5a05180f000000000000000000000000000000000000000000000000000000007bffffffffffffffffffffffffffffffffffffffffffffffffffffffff1916827bffffffffffffffffffffffffffffffffffffffffffffffffffffffff19161480612bc65750612bc582612eea565b5b9050919050565b612bd8838383612f64565b505050565b606060006002836002612bf091906143ee565b612bfa9190614367565b67ffffffffffffffff811115612c39577f4e487b7100000000000000000000000000000000000000000000000000000000600052604160045260246000fd5b6040519080825280601f01601f191660200182016040528015612c6b5781602001600182028036833780820191505090505b5090507f300000000000000000000000000000000000000000000000000000000000000081600081518110612cc9577f4e487b7100000000000000000000000000000000000000000000000000000000600052603260045260246000fd5b60200101907effffffffffffffffffffffffffffffffffffffffffffffffffffffffffffff1916908160001a9053507f780000000000000000000000000000000000000000000000000000000000000081600181518110612d53577f4e487b7100000000000000000000000000000000000000000000000000000000600052603260045260246000fd5b60200101907effffffffffffffffffffffffffffffffffffffffffffffffffffffffffffff1916908160001a90535060006001846002612d9391906143ee565b612d9d9190614367565b90505b6001811115612e89577f3031323334353637383961626364656600000000000000000000000000000000600f861660108110612e05577f4e487b7100000000000000000000000000000000000000000000000000000000600052603260045260246000fd5b1a60f81b828281518110612e42577f4e487b7100000000000000000000000000000000000000000000000000000000600052603260045260246000fd5b60200101907effffffffffffffffffffffffffffffffffffffffffffffffffffffffffffff1916908160001a905350600485901c945080612e829061453c565b9050612da0565b5060008414612ecd576040517f08c379a0000000000000000000000000000000000000000000000000000000008152600401612ec490613f0a565b60405180910390fd5b8091505092915050565b600080823b905060008111915050919050565b60007f7965db0b000000000000000000000000000000000000000000000000000000007bffffffffffffffffffffffffffffffffffffffffffffffffffffffff1916827bffffffffffffffffffffffffffffffffffffffffffffffffffffffff19161480612f5d5750612f5c82612fbc565b5b9050919050565b612f6f838383613026565b612f77610ce8565b15612fb7576040517f08c379a0000000000000000000000000000000000000000000000000000000008152600401612fae90613f2a565b60405180910390fd5b505050565b60007f01ffc9a7000000000000000000000000000000000000000000000000000000007bffffffffffffffffffffffffffffffffffffffffffffffffffffffff1916827bffffffffffffffffffffffffffffffffffffffffffffffffffffffff1916149050919050565b61303183838361313a565b600073ffffffffffffffffffffffffffffffffffffffff168373ffffffffffffffffffffffffffffffffffffffff1614156130745761306f8161313f565b6130b3565b8173ffffffffffffffffffffffffffffffffffffffff168373ffffffffffffffffffffffffffffffffffffffff16146130b2576130b18382613188565b5b5b600073ffffffffffffffffffffffffffffffffffffffff168273ffffffffffffffffffffffffffffffffffffffff1614156130f6576130f1816132f5565b613135565b8273ffffffffffffffffffffffffffffffffffffffff168273ffffffffffffffffffffffffffffffffffffffff1614613134576131338282613438565b5b5b505050565b505050565b600a80549050600b600083815260200190815260200160002081905550600a81908060018154018082558091505060019003906000526020600020016000909190919091505550565b6000600161319584610e59565b61319f9190614448565b9050600060096000848152602001908152602001600020549050818114613284576000600860008673ffffffffffffffffffffffffffffffffffffffff1673ffffffffffffffffffffffffffffffffffffffff168152602001908152602001600020600084815260200190815260200160002054905080600860008773ffffffffffffffffffffffffffffffffffffffff1673ffffffffffffffffffffffffffffffffffffffff168152602001908152602001600020600084815260200190815260200160002081905550816009600083815260200190815260200160002081905550505b6009600084815260200190815260200160002060009055600860008573ffffffffffffffffffffffffffffffffffffffff1673ffffffffffffffffffffffffffffffffffffffff16815260200190815260200160002060008381526020019081526020016000206000905550505050565b60006001600a805490506133099190614448565b90506000600b60008481526020019081526020016000205490506000600a838154811061335f577f4e487b7100000000000000000000000000000000000000000000000000000000600052603260045260246000fd5b9060005260206000200154905080600a83815481106133a7577f4e487b7100000000000000000000000000000000000000000000000000000000600052603260045260246000fd5b906000526020600020018190555081600b600083815260200190815260200160002081905550600b600085815260200190815260200160002060009055600a80548061341c577f4e487b7100000000000000000000000000000000000000000000000000000000600052603160045260246000fd5b6001900381819060005260206000200160009055905550505050565b600061344383610e59565b905081600860008573ffffffffffffffffffffffffffffffffffffffff1673ffffffffffffffffffffffffffffffffffffffff168152602001908152602001600020600083815260200190815260200160002081905550806009600084815260200190815260200160002081905550505050565b60006134ca6134c5846142f3565b6142ce565b9050828152602081018484840111156134e257600080fd5b6134ed8482856144fa565b509392505050565b60008135905061350481614f4b565b92915050565b60008135905061351981614f62565b92915050565b60008135905061352e81614f79565b92915050565b60008135905061354381614f90565b92915050565b60008151905061355881614f90565b92915050565b600082601f83011261356f57600080fd5b813561357f8482602086016134b7565b91505092915050565b60008135905061359781614fa7565b92915050565b6000602082840312156135af57600080fd5b60006135bd848285016134f5565b91505092915050565b600080604083850312156135d957600080fd5b60006135e7858286016134f5565b92505060206135f8858286016134f5565b9150509250929050565b60008060006060848603121561361757600080fd5b6000613625868287016134f5565b9350506020613636868287016134f5565b925050604061364786828701613588565b9150509250925092565b6000806000806080858703121561366757600080fd5b6000613675878288016134f5565b9450506020613686878288016134f5565b935050604061369787828801613588565b925050606085013567ffffffffffffffff8111156136b457600080fd5b6136c08782880161355e565b91505092959194509250565b600080604083850312156136df57600080fd5b60006136ed858286016134f5565b92505060206136fe8582860161350a565b9150509250929050565b6000806040838503121561371b57600080fd5b6000613729858286016134f5565b925050602061373a85828601613588565b9150509250929050565b60008060006060848603121561375957600080fd5b6000613767868287016134f5565b935050602061377886828701613588565b92505060406137898682870161351f565b9150509250925092565b6000602082840312156137a557600080fd5b60006137b38482850161351f565b91505092915050565b600080604083850312156137cf57600080fd5b60006137dd8582860161351f565b92505060206137ee858286016134f5565b9150509250929050565b6000806040838503121561380b57600080fd5b60006138198582860161351f565b925050602061382a85828601613588565b9150509250929050565b60006020828403121561384657600080fd5b600061385484828501613534565b91505092915050565b60006020828403121561386f57600080fd5b600061387d84828501613549565b91505092915050565b60006020828403121561389857600080fd5b60006138a684828501613588565b91505092915050565b6138b88161447c565b82525050565b6138c78161448e565b82525050565b6138d68161449a565b82525050565b60006138e782614324565b6138f1818561433a565b9350613901818560208601614509565b61390a816146ff565b840191505092915050565b60006139208261432f565b61392a818561434b565b935061393a818560208601614509565b613943816146ff565b840191505092915050565b60006139598261432f565b613963818561435c565b9350613973818560208601614509565b80840191505092915050565b600061398c60208361434b565b915061399782614710565b602082019050919050565b60006139af602b8361434b565b91506139ba82614739565b604082019050919050565b60006139d260148361434b565b91506139dd82614788565b602082019050919050565b60006139f5602b8361434b565b9150613a00826147b1565b604082019050919050565b6000613a1860328361434b565b9150613a2382614800565b604082019050919050565b6000613a3b601c8361434b565b9150613a468261484f565b602082019050919050565b6000613a5e603e8361434b565b9150613a6982614878565b604082019050919050565b6000613a8160248361434b565b9150613a8c826148c7565b604082019050919050565b6000613aa460198361434b565b9150613aaf82614916565b602082019050919050565b6000613ac7602c8361434b565b9150613ad28261493f565b604082019050919050565b6000613aea60108361434b565b9150613af58261498e565b602082019050919050565b6000613b0d60388361434b565b9150613b18826149b7565b604082019050919050565b6000613b30602a8361434b565b9150613b3b82614a06565b604082019050919050565b6000613b5360298361434b565b9150613b5e82614a55565b604082019050919050565b6000613b7660208361434b565b9150613b8182614aa4565b602082019050919050565b6000613b9960248361434b565b9150613ba482614acd565b604082019050919050565b6000613bbc602c8361434b565b9150613bc782614b1c565b604082019050919050565b6000613bdf60058361435c565b9150613bea82614b6b565b600582019050919050565b6000613c0260298361434b565b9150613c0d82614b94565b604082019050919050565b6000613c25602f8361434b565b9150613c3082614be3565b604082019050919050565b6000613c4860328361434b565b9150613c5382614c32565b604082019050919050565b6000613c6b60218361434b565b9150613c7682614c81565b604082019050919050565b6000613c8e60318361434b565b9150613c9982614cd0565b604082019050919050565b6000613cb160248361434b565b9150613cbc82614d1f565b604082019050919050565b6000613cd4602c8361434b565b9150613cdf82614d6e565b604082019050919050565b6000613cf760178361435c565b9150613d0282614dbd565b601782019050919050565b6000613d1a603d8361434b565b9150613d2582614de6565b604082019050919050565b6000613d3d60308361434b565b9150613d4882614e35565b604082019050919050565b6000613d6060408361434b565b9150613d6b82614e84565b604082019050919050565b6000613d8360118361435c565b9150613d8e82614ed3565b601182019050919050565b6000613da6602f8361434b565b9150613db182614efc565b604082019050919050565b613dc5816144f0565b82525050565b6000613dd7828561394e565b9150613de3828461394e565b91508190509392505050565b6000613dfb828461394e565b9150613e0682613bd2565b915081905092915050565b6000613e1c82613cea565b9150613e28828561394e565b9150613e3382613d76565b9150613e3f828461394e565b91508190509392505050565b6000602082019050613e6060008301846138af565b92915050565b6000608082019050613e7b60008301876138af565b613e8860208301866138af565b613e956040830185613dbc565b8181036060830152613ea781846138dc565b905095945050505050565b6000602082019050613ec760008301846138be565b92915050565b6000602082019050613ee260008301846138cd565b92915050565b60006020820190508181036000830152613f028184613915565b905092915050565b60006020820190508181036000830152613f238161397f565b9050919050565b60006020820190508181036000830152613f43816139a2565b9050919050565b60006020820190508181036000830152613f63816139c5565b9050919050565b60006020820190508181036000830152613f83816139e8565b9050919050565b60006020820190508181036000830152613fa381613a0b565b9050919050565b60006020820190508181036000830152613fc381613a2e565b9050919050565b60006020820190508181036000830152613fe381613a51565b9050919050565b6000602082019050818103600083015261400381613a74565b9050919050565b6000602082019050818103600083015261402381613a97565b9050919050565b6000602082019050818103600083015261404381613aba565b9050919050565b6000602082019050818103600083015261406381613add565b9050919050565b6000602082019050818103600083015261408381613b00565b9050919050565b600060208201905081810360008301526140a381613b23565b9050919050565b600060208201905081810360008301526140c381613b46565b9050919050565b600060208201905081810360008301526140e381613b69565b9050919050565b6000602082019050818103600083015261410381613b8c565b9050919050565b6000602082019050818103600083015261412381613baf565b9050919050565b6000602082019050818103600083015261414381613bf5565b9050919050565b6000602082019050818103600083015261416381613c18565b9050919050565b6000602082019050818103600083015261418381613c3b565b9050919050565b600060208201905081810360008301526141a381613c5e565b9050919050565b600060208201905081810360008301526141c381613c81565b9050919050565b600060208201905081810360008301526141e381613ca4565b9050919050565b6000602082019050818103600083015261420381613cc7565b9050919050565b6000602082019050818103600083015261422381613d0d565b9050919050565b6000602082019050818103600083015261424381613d30565b9050919050565b6000602082019050818103600083015261426381613d53565b9050919050565b6000602082019050818103600083015261428381613d99565b9050919050565b600060208201905061429f6000830184613dbc565b92915050565b60006040820190506142ba6000830185613dbc565b6142c760208301846138af565b9392505050565b60006142d86142e9565b90506142e48282614598565b919050565b6000604051905090565b600067ffffffffffffffff82111561430e5761430d6146d0565b5b614317826146ff565b9050602081019050919050565b600081519050919050565b600081519050919050565b600082825260208201905092915050565b600082825260208201905092915050565b600081905092915050565b6000614372826144f0565b915061437d836144f0565b9250827fffffffffffffffffffffffffffffffffffffffffffffffffffffffffffffffff038211156143b2576143b1614643565b5b828201905092915050565b60006143c8826144f0565b91506143d3836144f0565b9250826143e3576143e2614672565b5b828204905092915050565b60006143f9826144f0565b9150614404836144f0565b9250817fffffffffffffffffffffffffffffffffffffffffffffffffffffffffffffffff048311821515161561443d5761443c614643565b5b828202905092915050565b6000614453826144f0565b915061445e836144f0565b92508282101561447157614470614643565b5b828203905092915050565b6000614487826144d0565b9050919050565b60008115159050919050565b6000819050919050565b60007fffffffff0000000000000000000000000000000000000000000000000000000082169050919050565b600073ffffffffffffffffffffffffffffffffffffffff82169050919050565b6000819050919050565b82818337600083830152505050565b60005b8381101561452757808201518184015260208101905061450c565b83811115614536576000848401525b50505050565b6000614547826144f0565b9150600082141561455b5761455a614643565b5b600182039050919050565b6000600282049050600182168061457e57607f821691505b60208210811415614592576145916146a1565b5b50919050565b6145a1826146ff565b810181811067ffffffffffffffff821117156145c0576145bf6146d0565b5b80604052505050565b60006145d4826144f0565b91507fffffffffffffffffffffffffffffffffffffffffffffffffffffffffffffffff82141561460757614606614643565b5b600182019050919050565b600061461d826144f0565b9150614628836144f0565b92508261463857614637614672565b5b828206905092915050565b7f4e487b7100000000000000000000000000000000000000000000000000000000600052601160045260246000fd5b7f4e487b7100000000000000000000000000000000000000000000000000000000600052601260045260246000fd5b7f4e487b7100000000000000000000000000000000000000000000000000000000600052602260045260246000fd5b7f4e487b7100000000000000000000000000000000000000000000000000000000600052604160045260246000fd5b6000601f19601f8301169050919050565b7f537472696e67733a20686578206c656e67746820696e73756666696369656e74600082015250565b7f4552433732315061757361626c653a20746f6b656e207472616e73666572207760008201527f68696c6520706175736564000000000000000000000000000000000000000000602082015250565b7f5061757361626c653a206e6f7420706175736564000000000000000000000000600082015250565b7f455243373231456e756d657261626c653a206f776e657220696e646578206f7560008201527f74206f6620626f756e6473000000000000000000000000000000000000000000602082015250565b7f4552433732313a207472616e7366657220746f206e6f6e20455243373231526560008201527f63656976657220696d706c656d656e7465720000000000000000000000000000602082015250565b7f4552433732313a20746f6b656e20616c7265616479206d696e74656400000000600082015250565b7f4552433732315072657365744d696e7465725061757365724175746f49643a2060008201527f6d75737420686176652070617573657220726f6c6520746f2070617573650000602082015250565b7f4552433732313a207472616e7366657220746f20746865207a65726f2061646460008201527f7265737300000000000000000000000000000000000000000000000000000000602082015250565b7f4552433732313a20617070726f766520746f2063616c6c657200000000000000600082015250565b7f4552433732313a206f70657261746f7220717565727920666f72206e6f6e657860008201527f697374656e7420746f6b656e0000000000000000000000000000000000000000602082015250565b7f5061757361626c653a2070617573656400000000000000000000000000000000600082015250565b7f4552433732313a20617070726f76652063616c6c6572206973206e6f74206f7760008201527f6e6572206e6f7220617070726f76656420666f7220616c6c0000000000000000602082015250565b7f4552433732313a2062616c616e636520717565727920666f7220746865207a6560008201527f726f206164647265737300000000000000000000000000000000000000000000602082015250565b7f4552433732313a206f776e657220717565727920666f72206e6f6e657869737460008201527f656e7420746f6b656e0000000000000000000000000000000000000000000000602082015250565b7f4552433732313a206d696e7420746f20746865207a65726f2061646472657373600082015250565b7f4169736874697369546f6b656e2c20546f6b656e206973207374696c6c206c6f60008201527f636b656400000000000000000000000000000000000000000000000000000000602082015250565b7f4552433732313a20617070726f76656420717565727920666f72206e6f6e657860008201527f697374656e7420746f6b656e0000000000000000000000000000000000000000602082015250565b7f2e6a736f6e000000000000000000000000000000000000000000000000000000600082015250565b7f4552433732313a207472616e73666572206f6620746f6b656e2074686174206960008201527f73206e6f74206f776e0000000000000000000000000000000000000000000000602082015250565b7f4552433732314d657461646174613a2055524920717565727920666f72206e6f60008201527f6e6578697374656e7420746f6b656e0000000000000000000000000000000000602082015250565b7f4169736874697369546f6b656e3a204f6e6c7920746865206f776e657220636160008201527f6e20756e6c6f636b2074686520746f6b656e0000000000000000000000000000602082015250565b7f4552433732313a20617070726f76616c20746f2063757272656e74206f776e6560008201527f7200000000000000000000000000000000000000000000000000000000000000602082015250565b7f4552433732313a207472616e736665722063616c6c6572206973206e6f74206f60008201527f776e6572206e6f7220617070726f766564000000000000000000000000000000602082015250565b7f4169736874697369546f6b656e3a20556e6c6f636b20636f646520696e636f7260008201527f7265637400000000000000000000000000000000000000000000000000000000602082015250565b7f455243373231456e756d657261626c653a20676c6f62616c20696e646578206f60008201527f7574206f6620626f756e64730000000000000000000000000000000000000000602082015250565b7f416363657373436f6e74726f6c3a206163636f756e7420000000000000000000600082015250565b7f4552433732315072657365744d696e7465725061757365724175746f49643a2060008201527f6d7573742068617665206d696e74657220726f6c6520746f206d696e74000000602082015250565b7f4552433732314275726e61626c653a2063616c6c6572206973206e6f74206f7760008201527f6e6572206e6f7220617070726f76656400000000000000000000000000000000602082015250565b7f4552433732315072657365744d696e7465725061757365724175746f49643a2060008201527f6d75737420686176652070617573657220726f6c6520746f20756e7061757365602082015250565b7f206973206d697373696e6720726f6c6520000000000000000000000000000000600082015250565b7f416363657373436f6e74726f6c3a2063616e206f6e6c792072656e6f756e636560008201527f20726f6c657320666f722073656c660000000000000000000000000000000000602082015250565b614f548161447c565b8114614f5f57600080fd5b50565b614f6b8161448e565b8114614f7657600080fd5b50565b614f828161449a565b8114614f8d57600080fd5b50565b614f99816144a4565b8114614fa457600080fd5b50565b614fb0816144f0565b8114614fbb57600080fd5b5056fea264697066735822122079c9089a713b8212ae9f8b0d38e91cfb17ee70c4253b1d3c2c2e2c0aa65f5ff764736f6c63430008030033",
  "immutableReferences": {},
  "source": "// SPDX-License-Identifier: MIT\r\npragma solidity ^0.8.3;\r\n\r\nimport \"@openzeppelin/contracts/token/ERC721/presets/ERC721PresetMinterPauserAutoId.sol\";\r\nimport \"@openzeppelin/contracts/utils/Counters.sol\";\r\n\r\ncontract AisthisiToken is ERC721PresetMinterPauserAutoId {\r\n    using Counters for Counters.Counter;\r\n    Counters.Counter private _tokenIds;\r\n\r\n    mapping(uint => uint) public tokenLockedFromTimeStamp;\r\n    mapping(uint => bytes32) public tokenUnlockedHashs;\r\n    mapping(uint => bool) public tokenUnlocked;\r\n\r\n    event TokenUnlocked(uint tokenId, address unlockerAddress);\r\n    constructor() ERC721PresetMinterPauserAutoId(\"AisthisiToken\", \"AIS\", \"https://aisthisi.art/metadata/\"){}\r\n\r\n    function _beforeTokenTransfer(address from, address to, uint256 tokenId) internal override {\r\n        require(tokenLockedFromTimeStamp[tokenId] > block.timestamp || tokenUnlocked[tokenId], \"AishtisiToken, Token is still locked\");\r\n        super._beforeTokenTransfer(from, to, tokenId);\r\n    }\r\n\r\n    function unlockToken(bytes32 unlockHash, uint256 tokenId) public {\r\n        require(msg.sender == ownerOf(tokenId), \"AishtisiToken: Only the owner can unlock the token\");\r\n        require(keccak256(abi.encode(unlockHash)) == tokenUnlockedHashs[tokenId], \"AishtisiToken: Unlock code incorrect\");\r\n        tokenUnlocked[tokenId] = true;\r\n        emit TokenUnlocked(tokenId, msg.sender);\r\n    }\r\n\r\n    function mint(address to, uint lockedFromTimestamp, bytes32 unlockHash) public {\r\n        tokenLockedFromTimeStamp[_tokenIds.current()] = lockedFromTimestamp;\r\n        tokenUnlockedHashs[_tokenIds.current()] = unlockHash;\r\n        _tokenIds.increment();\r\n        super.mint(to);\r\n    }\r\n\r\n\r\n    function tokenURI(uint256 tokenId) public view virtual override returns(string memory) {\r\n        return string (abi.encodePacked(super.tokenURI(tokenId),\".json\"));\r\n    }\r\n\r\n}",
  "sourcePath": "F:\\Blockhain\\tokenization-erc721\\contracts\\AisthisiToken.sol",
  "compiler": {
    "name": "solc",
    "version": "0.8.3+commit.8d00100c.Emscripten.clang"
  },
  "schemaVersion": "3.4.2",
  "updatedAt": "2021-08-14T06:35:28.525Z",
  "networkType": "ethereum",
  "devdoc": {
    "kind": "dev",
    "methods": {
      "approve(address,uint256)": {
        "details": "See {IERC721-approve}."
      },
      "balanceOf(address)": {
        "details": "See {IERC721-balanceOf}."
      },
      "burn(uint256)": {
        "details": "Burns `tokenId`. See {ERC721-_burn}. Requirements: - The caller must own `tokenId` or be an approved operator."
      },
      "getApproved(uint256)": {
        "details": "See {IERC721-getApproved}."
      },
      "getRoleAdmin(bytes32)": {
        "details": "Returns the admin role that controls `role`. See {grantRole} and {revokeRole}. To change a role's admin, use {_setRoleAdmin}."
      },
      "getRoleMember(bytes32,uint256)": {
        "details": "Returns one of the accounts that have `role`. `index` must be a value between 0 and {getRoleMemberCount}, non-inclusive. Role bearers are not sorted in any particular way, and their ordering may change at any point. WARNING: When using {getRoleMember} and {getRoleMemberCount}, make sure you perform all queries on the same block. See the following https://forum.openzeppelin.com/t/iterating-over-elements-on-enumerableset-in-openzeppelin-contracts/2296[forum post] for more information."
      },
      "getRoleMemberCount(bytes32)": {
        "details": "Returns the number of accounts that have `role`. Can be used together with {getRoleMember} to enumerate all bearers of a role."
      },
      "grantRole(bytes32,address)": {
        "details": "Overload {grantRole} to track enumerable memberships"
      },
      "hasRole(bytes32,address)": {
        "details": "Returns `true` if `account` has been granted `role`."
      },
      "isApprovedForAll(address,address)": {
        "details": "See {IERC721-isApprovedForAll}."
      },
      "mint(address)": {
        "details": "Creates a new token for `to`. Its token ID will be automatically assigned (and available on the emitted {IERC721-Transfer} event), and the token URI autogenerated based on the base URI passed at construction. See {ERC721-_mint}. Requirements: - the caller must have the `MINTER_ROLE`."
      },
      "name()": {
        "details": "See {IERC721Metadata-name}."
      },
      "ownerOf(uint256)": {
        "details": "See {IERC721-ownerOf}."
      },
      "pause()": {
        "details": "Pauses all token transfers. See {ERC721Pausable} and {Pausable-_pause}. Requirements: - the caller must have the `PAUSER_ROLE`."
      },
      "paused()": {
        "details": "Returns true if the contract is paused, and false otherwise."
      },
      "renounceRole(bytes32,address)": {
        "details": "Overload {renounceRole} to track enumerable memberships"
      },
      "revokeRole(bytes32,address)": {
        "details": "Overload {revokeRole} to track enumerable memberships"
      },
      "safeTransferFrom(address,address,uint256)": {
        "details": "See {IERC721-safeTransferFrom}."
      },
      "safeTransferFrom(address,address,uint256,bytes)": {
        "details": "See {IERC721-safeTransferFrom}."
      },
      "setApprovalForAll(address,bool)": {
        "details": "See {IERC721-setApprovalForAll}."
      },
      "supportsInterface(bytes4)": {
        "details": "See {IERC165-supportsInterface}."
      },
      "symbol()": {
        "details": "See {IERC721Metadata-symbol}."
      },
      "tokenByIndex(uint256)": {
        "details": "See {IERC721Enumerable-tokenByIndex}."
      },
      "tokenOfOwnerByIndex(address,uint256)": {
        "details": "See {IERC721Enumerable-tokenOfOwnerByIndex}."
      },
      "tokenURI(uint256)": {
        "details": "See {IERC721Metadata-tokenURI}."
      },
      "totalSupply()": {
        "details": "See {IERC721Enumerable-totalSupply}."
      },
      "transferFrom(address,address,uint256)": {
        "details": "See {IERC721-transferFrom}."
      },
      "unpause()": {
        "details": "Unpauses all token transfers. See {ERC721Pausable} and {Pausable-_unpause}. Requirements: - the caller must have the `PAUSER_ROLE`."
      }
    },
    "version": 1
  },
  "userdoc": {
    "kind": "user",
    "methods": {},
    "version": 1
  }
}